{
  "_format": "hh-sol-artifact-1",
  "contractName": "Jackpotbox",
  "sourceName": "contracts/Jackpotbox.sol",
  "abi": [
    {
      "inputs": [],
      "stateMutability": "nonpayable",
      "type": "constructor"
    },
    {
      "anonymous": false,
      "inputs": [
        {
          "indexed": true,
          "internalType": "bytes32",
          "name": "requestId",
          "type": "bytes32"
        },
        {
          "indexed": true,
          "internalType": "uint256",
          "name": "result",
          "type": "uint256"
        }
      ],
      "name": "DiceLanded",
      "type": "event"
    },
    {
      "anonymous": false,
      "inputs": [
        {
          "indexed": true,
          "internalType": "bytes32",
          "name": "requestId",
          "type": "bytes32"
        },
        {
          "indexed": true,
          "internalType": "address",
          "name": "roller",
          "type": "address"
        }
      ],
      "name": "DiceRolled",
      "type": "event"
    },
    {
      "anonymous": false,
      "inputs": [
        {
          "indexed": true,
          "internalType": "address",
          "name": "player",
          "type": "address"
        },
        {
          "indexed": false,
          "internalType": "uint256",
          "name": "entryPrice",
          "type": "uint256"
        }
      ],
      "name": "EnteredJackpot",
      "type": "event"
    },
    {
      "anonymous": false,
      "inputs": [
        {
          "indexed": true,
          "internalType": "address",
          "name": "winner",
          "type": "address"
        },
        {
          "indexed": false,
          "internalType": "uint256",
          "name": "jackpot",
          "type": "uint256"
        }
      ],
      "name": "JackpotWon",
      "type": "event"
    },
    {
      "anonymous": false,
      "inputs": [
        {
          "indexed": true,
          "internalType": "address",
          "name": "winner",
          "type": "address"
        },
        {
          "indexed": false,
          "internalType": "uint256",
          "name": "prizePool",
          "type": "uint256"
        }
      ],
      "name": "PrizePoolWon",
      "type": "event"
    },
    {
      "inputs": [],
      "name": "admin",
      "outputs": [
        {
          "internalType": "address",
          "name": "",
          "type": "address"
        }
      ],
      "stateMutability": "view",
      "type": "function"
    },
    {
      "inputs": [],
      "name": "adminAddJackpot",
      "outputs": [],
      "stateMutability": "payable",
      "type": "function"
    },
    {
      "inputs": [],
      "name": "counter",
      "outputs": [
        {
          "internalType": "uint256",
          "name": "",
          "type": "uint256"
        }
      ],
      "stateMutability": "view",
      "type": "function"
    },
    {
      "inputs": [],
      "name": "enterJackpot",
      "outputs": [],
      "stateMutability": "payable",
      "type": "function"
    },
    {
      "inputs": [],
      "name": "entryPrice",
      "outputs": [
        {
          "internalType": "uint256",
          "name": "",
          "type": "uint256"
        }
      ],
      "stateMutability": "view",
      "type": "function"
    },
    {
      "inputs": [],
      "name": "fee",
      "outputs": [
        {
          "internalType": "uint256",
          "name": "",
          "type": "uint256"
        }
      ],
      "stateMutability": "view",
      "type": "function"
    },
    {
      "inputs": [
        {
          "internalType": "bytes32",
          "name": "requestId",
          "type": "bytes32"
        },
        {
          "internalType": "uint256",
          "name": "rand",
          "type": "uint256"
        }
      ],
      "name": "fulfillRandomWords",
      "outputs": [],
      "stateMutability": "nonpayable",
      "type": "function"
    },
    {
      "inputs": [],
      "name": "getCounter",
      "outputs": [
        {
          "internalType": "uint256",
          "name": "",
          "type": "uint256"
        }
      ],
      "stateMutability": "view",
      "type": "function"
    },
    {
      "inputs": [],
      "name": "getJackpot",
      "outputs": [
        {
          "internalType": "uint256",
          "name": "",
          "type": "uint256"
        }
      ],
      "stateMutability": "view",
      "type": "function"
    },
    {
      "inputs": [],
      "name": "jackpot",
      "outputs": [
        {
          "internalType": "uint256",
          "name": "",
          "type": "uint256"
        }
      ],
      "stateMutability": "view",
      "type": "function"
    },
    {
      "inputs": [],
      "name": "minChanceJackpot",
      "outputs": [
        {
          "internalType": "uint256",
          "name": "",
          "type": "uint256"
        }
      ],
      "stateMutability": "view",
      "type": "function"
    },
    {
      "inputs": [],
      "name": "minChancePrizepool",
      "outputs": [
        {
          "internalType": "uint256",
          "name": "",
          "type": "uint256"
        }
      ],
      "stateMutability": "view",
      "type": "function"
    },
    {
      "inputs": [],
      "name": "oracle",
      "outputs": [
        {
          "internalType": "address",
          "name": "",
          "type": "address"
        }
      ],
      "stateMutability": "view",
      "type": "function"
    },
    {
      "inputs": [],
      "name": "prizePool",
      "outputs": [
        {
          "internalType": "uint256",
          "name": "",
          "type": "uint256"
        }
      ],
      "stateMutability": "view",
      "type": "function"
    },
    {
      "inputs": [],
      "name": "prizePoolOffset",
      "outputs": [
        {
          "internalType": "uint256",
          "name": "",
          "type": "uint256"
        }
      ],
      "stateMutability": "view",
      "type": "function"
    },
    {
      "inputs": [
        {
          "internalType": "address",
          "name": "newOracle",
          "type": "address"
        }
      ],
      "name": "setOracle",
      "outputs": [],
      "stateMutability": "nonpayable",
      "type": "function"
    },
    {
      "inputs": [
        {
          "internalType": "address",
          "name": "newSpiliter",
          "type": "address"
        }
      ],
      "name": "setSpiliter",
      "outputs": [],
      "stateMutability": "nonpayable",
      "type": "function"
    },
    {
      "inputs": [],
      "name": "spiliter",
      "outputs": [
        {
          "internalType": "address",
          "name": "",
          "type": "address"
        }
      ],
      "stateMutability": "view",
      "type": "function"
    }
  ],
  "bytecode": "0x6080604052600a600355600560045560006005556000600655600a6007556064600855600a6009556001600a5534801561003857600080fd5b50336000806101000a81548173ffffffffffffffffffffffffffffffffffffffff021916908373ffffffffffffffffffffffffffffffffffffffff16021790555033600160006101000a81548173ffffffffffffffffffffffffffffffffffffffff021916908373ffffffffffffffffffffffffffffffffffffffff16021790555033600260006101000a81548173ffffffffffffffffffffffffffffffffffffffff021916908373ffffffffffffffffffffffffffffffffffffffff16021790555061140b8061010a6000396000f3fe6080604052600436106101095760003560e01c80638ada066e11610095578063ddca3f4311610064578063ddca3f43146102f7578063f1c03f1714610322578063f745adfc1461034d578063f851a44014610378578063fd51ce27146103a357610109565b80638ada066e1461026c5780639329066c14610297578063bce08b33146102c2578063da931fe0146102ed57610109565b80636b31ee01116100dc5780636b31ee0114610197578063719ce73e146101c25780637adbf973146101ed5780637dc0d1d014610216578063828fc0151461024157610109565b8063179e89cd1461010e578063319491e31461011857806361bc221a1461014157806369d182141461016c575b600080fd5b6101166103cc565b005b34801561012457600080fd5b5061013f600480360381019061013a9190610e51565b610475565b005b34801561014d57600080fd5b5061015661099a565b6040516101639190610ea0565b60405180910390f35b34801561017857600080fd5b506101816109a0565b60405161018e9190610efc565b60405180910390f35b3480156101a357600080fd5b506101ac6109c6565b6040516101b99190610ea0565b60405180910390f35b3480156101ce57600080fd5b506101d76109cc565b6040516101e49190610ea0565b60405180910390f35b3480156101f957600080fd5b50610214600480360381019061020f9190610f43565b6109d2565b005b34801561022257600080fd5b5061022b610aa4565b6040516102389190610efc565b60405180910390f35b34801561024d57600080fd5b50610256610aca565b6040516102639190610ea0565b60405180910390f35b34801561027857600080fd5b50610281610ad0565b60405161028e9190610ea0565b60405180910390f35b3480156102a357600080fd5b506102ac610ada565b6040516102b99190610ea0565b60405180910390f35b3480156102ce57600080fd5b506102d7610ae4565b6040516102e49190610ea0565b60405180910390f35b6102f5610aea565b005b34801561030357600080fd5b5061030c610cd8565b6040516103199190610ea0565b60405180910390f35b34801561032e57600080fd5b50610337610cde565b6040516103449190610ea0565b60405180910390f35b34801561035957600080fd5b50610362610ce4565b60405161036f9190610ea0565b60405180910390f35b34801561038457600080fd5b5061038d610cea565b60405161039a9190610efc565b60405180910390f35b3480156103af57600080fd5b506103ca60048036038101906103c59190610f43565b610d0e565b005b60008054906101000a900473ffffffffffffffffffffffffffffffffffffffff1673ffffffffffffffffffffffffffffffffffffffff163373ffffffffffffffffffffffffffffffffffffffff161461045a576040517f08c379a000000000000000000000000000000000000000000000000000000000815260040161045190610ff3565b60405180910390fd5b346005600082825461046c9190611042565b92505081905550565b600260009054906101000a900473ffffffffffffffffffffffffffffffffffffffff1673ffffffffffffffffffffffffffffffffffffffff163373ffffffffffffffffffffffffffffffffffffffff1614610505576040517f08c379a00000000000000000000000000000000000000000000000000000000081526004016104fc906110e8565b60405180910390fd5b80827f909dd726737b7ffa4ae9d137e9edebe8a74a9c2910a4b60e8112f93ab217083760405160405180910390a3600060045460646105449190611137565b6007546105519190611168565b9050600080828461056291906111aa565b1490506000806006546008546105789190611042565b8561058391906111aa565b14905081156106ca57600354600560008282546105a091906111db565b92505081905550600b600086815260200190815260200160002060009054906101000a900473ffffffffffffffffffffffffffffffffffffffff1673ffffffffffffffffffffffffffffffffffffffff166108fc6003549081150290604051600060405180830381858888f19350505050158015610622573d6000803e3d6000fd5b50600a546003546106339190611137565b60065461064091906111db565b600681905550600b600086815260200190815260200160002060009054906101000a900473ffffffffffffffffffffffffffffffffffffffff1673ffffffffffffffffffffffffffffffffffffffff167f1f0cf6f7d6ed23e7dac9abd8b776b05f34ffeca71554f8f1df67111a66ea02f36003546040516106c19190610ea0565b60405180910390a25b801561088057600b600086815260200190815260200160002060009054906101000a900473ffffffffffffffffffffffffffffffffffffffff1673ffffffffffffffffffffffffffffffffffffffff166108fc600a600460055461072e9190611168565b6107389190611137565b9081150290604051600060405180830381858888f19350505050158015610763573d6000803e3d6000fd5b50600160009054906101000a900473ffffffffffffffffffffffffffffffffffffffff1673ffffffffffffffffffffffffffffffffffffffff166108fc600a6005546107af9190611137565b9081150290604051600060405180830381858888f193505050501580156107da573d6000803e3d6000fd5b50600a60046006546107ec9190611168565b6107f69190611137565b600681905550600b600086815260200190815260200160002060009054906101000a900473ffffffffffffffffffffffffffffffffffffffff1673ffffffffffffffffffffffffffffffffffffffff167fbf737c87eff4ef74213cb228c9e25ca0c4519947f5fcc4a41b221ba93d76a4256005546040516108779190610ea0565b60405180910390a25b600660008154809291906108939061120f565b91905055506000600c6000600b600089815260200190815260200160002060009054906101000a900473ffffffffffffffffffffffffffffffffffffffff1673ffffffffffffffffffffffffffffffffffffffff1673ffffffffffffffffffffffffffffffffffffffff16815260200190815260200160002081905550600b600086815260200190815260200160002060009054906101000a900473ffffffffffffffffffffffffffffffffffffffff1673ffffffffffffffffffffffffffffffffffffffff167fc6dc69689d7726af8e61be021c11d7d0ea30e6b1f73b78c8cd7c8da7d6456210600a5460405161098b9190610ea0565b60405180910390a25050505050565b60065481565b600160009054906101000a900473ffffffffffffffffffffffffffffffffffffffff1681565b60055481565b60035481565b60008054906101000a900473ffffffffffffffffffffffffffffffffffffffff1673ffffffffffffffffffffffffffffffffffffffff163373ffffffffffffffffffffffffffffffffffffffff1614610a60576040517f08c379a0000000000000000000000000000000000000000000000000000000008152600401610a5790610ff3565b60405180910390fd5b80600260006101000a81548173ffffffffffffffffffffffffffffffffffffffff021916908373ffffffffffffffffffffffffffffffffffffffff16021790555050565b600260009054906101000a900473ffffffffffffffffffffffffffffffffffffffff1681565b60075481565b6000600654905090565b6000600554905090565b60085481565b600a543414610b2e576040517f08c379a0000000000000000000000000000000000000000000000000000000008152600401610b25906112a3565b60405180910390fd5b6000600c60003373ffffffffffffffffffffffffffffffffffffffff1673ffffffffffffffffffffffffffffffffffffffff1681526020019081526020016000205414610bb0576040517f08c379a0000000000000000000000000000000000000000000000000000000008152600401610ba79061130f565b60405180910390fd5b600a5460056000828254610bc49190611042565b925050819055506000433330604051602001610be293929190611398565b60405160208183030381529060405280519060200120905033600b600083815260200190815260200160002060006101000a81548173ffffffffffffffffffffffffffffffffffffffff021916908373ffffffffffffffffffffffffffffffffffffffff160217905550602a600c60003373ffffffffffffffffffffffffffffffffffffffff1673ffffffffffffffffffffffffffffffffffffffff168152602001908152602001600020819055503373ffffffffffffffffffffffffffffffffffffffff16817f923de4fc4aece24a78a9e4ca3009c571a742f81ac2c004a229224b0fd1883bdd60405160405180910390a350565b60095481565b60045481565b600a5481565b60008054906101000a900473ffffffffffffffffffffffffffffffffffffffff1681565b60008054906101000a900473ffffffffffffffffffffffffffffffffffffffff1673ffffffffffffffffffffffffffffffffffffffff163373ffffffffffffffffffffffffffffffffffffffff1614610d9c576040517f08c379a0000000000000000000000000000000000000000000000000000000008152600401610d9390610ff3565b60405180910390fd5b80600160006101000a81548173ffffffffffffffffffffffffffffffffffffffff021916908373ffffffffffffffffffffffffffffffffffffffff16021790555050565b600080fd5b6000819050919050565b610df881610de5565b8114610e0357600080fd5b50565b600081359050610e1581610def565b92915050565b6000819050919050565b610e2e81610e1b565b8114610e3957600080fd5b50565b600081359050610e4b81610e25565b92915050565b60008060408385031215610e6857610e67610de0565b5b6000610e7685828601610e06565b9250506020610e8785828601610e3c565b9150509250929050565b610e9a81610e1b565b82525050565b6000602082019050610eb56000830184610e91565b92915050565b600073ffffffffffffffffffffffffffffffffffffffff82169050919050565b6000610ee682610ebb565b9050919050565b610ef681610edb565b82525050565b6000602082019050610f116000830184610eed565b92915050565b610f2081610edb565b8114610f2b57600080fd5b50565b600081359050610f3d81610f17565b92915050565b600060208284031215610f5957610f58610de0565b5b6000610f6784828501610f2e565b91505092915050565b600082825260208201905092915050565b7f4f6e6c792061646d696e2063616e2063616c6c20746869732066756e6374696f60008201527f6e00000000000000000000000000000000000000000000000000000000000000602082015250565b6000610fdd602183610f70565b9150610fe882610f81565b604082019050919050565b6000602082019050818103600083015261100c81610fd0565b9050919050565b7f4e487b7100000000000000000000000000000000000000000000000000000000600052601160045260246000fd5b600061104d82610e1b565b915061105883610e1b565b92508282019050808211156110705761106f611013565b5b92915050565b7f4f6e6c79206f7261636c652063616e2063616c6c20746869732066756e63746960008201527f6f6e000000000000000000000000000000000000000000000000000000000000602082015250565b60006110d2602283610f70565b91506110dd82611076565b604082019050919050565b60006020820190508181036000830152611101816110c5565b9050919050565b7f4e487b7100000000000000000000000000000000000000000000000000000000600052601260045260246000fd5b600061114282610e1b565b915061114d83610e1b565b92508261115d5761115c611108565b5b828204905092915050565b600061117382610e1b565b915061117e83610e1b565b925082820261118c81610e1b565b915082820484148315176111a3576111a2611013565b5b5092915050565b60006111b582610e1b565b91506111c083610e1b565b9250826111d0576111cf611108565b5b828206905092915050565b60006111e682610e1b565b91506111f183610e1b565b925082820390508181111561120957611208611013565b5b92915050565b600061121a82610e1b565b91507fffffffffffffffffffffffffffffffffffffffffffffffffffffffffffffffff820361124c5761124b611013565b5b600182019050919050565b7f496e76616c696420656e74727920707269636500000000000000000000000000600082015250565b600061128d601383610f70565b915061129882611257565b602082019050919050565b600060208201905081810360008301526112bc81611280565b9050919050565b7f416c726561647920726f6c6c6564000000000000000000000000000000000000600082015250565b60006112f9600e83610f70565b9150611304826112c3565b602082019050919050565b60006020820190508181036000830152611328816112ec565b9050919050565b6000819050919050565b61134a61134582610e1b565b61132f565b82525050565b60008160601b9050919050565b600061136882611350565b9050919050565b600061137a8261135d565b9050919050565b61139261138d82610edb565b61136f565b82525050565b60006113a48286611339565b6020820191506113b48285611381565b6014820191506113c48284611381565b60148201915081905094935050505056fea2646970667358221220fd85ff364e637abb9a624626f29ccb896f2c3ea259a39cb6d046da1ae2a273c864736f6c63430008180033",
  "linkReferences": {},
  "deployedLinkReferences": {}
}