{
  "_format": "hh-sol-artifact-1",
  "contractName": "Jackpotbox",
  "sourceName": "contracts/Jackpotbox.sol",
  "abi": [
    {
      "inputs": [],
      "stateMutability": "nonpayable",
      "type": "constructor"
    },
    {
      "inputs": [],
      "name": "admin",
      "outputs": [
        {
          "internalType": "address",
          "name": "",
          "type": "address"
        }
      ],
      "stateMutability": "view",
      "type": "function"
    },
    {
      "inputs": [
        {
          "internalType": "uint256",
          "name": "amount",
          "type": "uint256"
        }
      ],
      "name": "adminAddJackpot",
      "outputs": [],
      "stateMutability": "nonpayable",
      "type": "function"
    },
    {
      "inputs": [],
      "name": "counter",
      "outputs": [
        {
          "internalType": "uint256",
          "name": "",
          "type": "uint256"
        }
      ],
      "stateMutability": "view",
      "type": "function"
    },
    {
      "inputs": [],
      "name": "entryPrice",
      "outputs": [
        {
          "internalType": "uint256",
          "name": "",
          "type": "uint256"
        }
      ],
      "stateMutability": "view",
      "type": "function"
    },
    {
      "inputs": [],
      "name": "fee",
      "outputs": [
        {
          "internalType": "uint256",
          "name": "",
          "type": "uint256"
        }
      ],
      "stateMutability": "view",
      "type": "function"
    },
    {
      "inputs": [],
      "name": "getJackpot",
      "outputs": [
        {
          "internalType": "uint256",
          "name": "",
          "type": "uint256"
        }
      ],
      "stateMutability": "view",
      "type": "function"
    },
    {
      "inputs": [],
      "name": "jackpot",
      "outputs": [
        {
          "internalType": "uint256",
          "name": "",
          "type": "uint256"
        }
      ],
      "stateMutability": "view",
      "type": "function"
    },
    {
      "inputs": [],
      "name": "minChanceJackpot",
      "outputs": [
        {
          "internalType": "uint256",
          "name": "",
          "type": "uint256"
        }
      ],
      "stateMutability": "view",
      "type": "function"
    },
    {
      "inputs": [],
      "name": "minChancePrizepool",
      "outputs": [
        {
          "internalType": "uint256",
          "name": "",
          "type": "uint256"
        }
      ],
      "stateMutability": "view",
      "type": "function"
    },
    {
      "inputs": [],
      "name": "prizePool",
      "outputs": [
        {
          "internalType": "uint256",
          "name": "",
          "type": "uint256"
        }
      ],
      "stateMutability": "view",
      "type": "function"
    },
    {
      "inputs": [],
      "name": "prizePoolOffset",
      "outputs": [
        {
          "internalType": "uint256",
          "name": "",
          "type": "uint256"
        }
      ],
      "stateMutability": "view",
      "type": "function"
    }
  ],
  "bytecode": "0x60806040526103e86001556005600255606460035560006004556103e8600555612710600655600a6007556103e860085534801561003c57600080fd5b50336000806101000a81548173ffffffffffffffffffffffffffffffffffffffff021916908373ffffffffffffffffffffffffffffffffffffffff1602179055506105028061008c6000396000f3fe608060405234801561001057600080fd5b50600436106100a95760003560e01c8063bcb1d0d211610071578063bcb1d0d214610144578063bce08b3314610160578063ddca3f431461017e578063f1c03f171461019c578063f745adfc146101ba578063f851a440146101d8576100a9565b806361bc221a146100ae5780636b31ee01146100cc578063719ce73e146100ea578063828fc015146101085780639329066c14610126575b600080fd5b6100b66101f6565b6040516100c39190610317565b60405180910390f35b6100d46101fc565b6040516100e19190610317565b60405180910390f35b6100f2610202565b6040516100ff9190610317565b60405180910390f35b610110610208565b60405161011d9190610317565b60405180910390f35b61012e61020e565b60405161013b9190610317565b60405180910390f35b61015e60048036038101906101599190610363565b610218565b005b6101686102c2565b6040516101759190610317565b60405180910390f35b6101866102c8565b6040516101939190610317565b60405180910390f35b6101a46102ce565b6040516101b19190610317565b60405180910390f35b6101c26102d4565b6040516101cf9190610317565b60405180910390f35b6101e06102da565b6040516101ed91906103d1565b60405180910390f35b60045481565b60035481565b60015481565b60055481565b6000600354905090565b60008054906101000a900473ffffffffffffffffffffffffffffffffffffffff1673ffffffffffffffffffffffffffffffffffffffff163373ffffffffffffffffffffffffffffffffffffffff16146102a6576040517f08c379a000000000000000000000000000000000000000000000000000000000815260040161029d90610449565b60405180910390fd5b80600360008282546102b89190610498565b9250508190555050565b60065481565b60075481565b60025481565b60085481565b60008054906101000a900473ffffffffffffffffffffffffffffffffffffffff1681565b6000819050919050565b610311816102fe565b82525050565b600060208201905061032c6000830184610308565b92915050565b600080fd5b610340816102fe565b811461034b57600080fd5b50565b60008135905061035d81610337565b92915050565b60006020828403121561037957610378610332565b5b60006103878482850161034e565b91505092915050565b600073ffffffffffffffffffffffffffffffffffffffff82169050919050565b60006103bb82610390565b9050919050565b6103cb816103b0565b82525050565b60006020820190506103e660008301846103c2565b92915050565b600082825260208201905092915050565b7f4f6e6c792061646d696e2063616e20616464206a61636b706f74000000000000600082015250565b6000610433601a836103ec565b915061043e826103fd565b602082019050919050565b6000602082019050818103600083015261046281610426565b9050919050565b7f4e487b7100000000000000000000000000000000000000000000000000000000600052601160045260246000fd5b60006104a3826102fe565b91506104ae836102fe565b92508282019050808211156104c6576104c5610469565b5b9291505056fea2646970667358221220b407171d1cda705d63640c6b4c053fb6ec1b9d532645a1fbc55f572fae1252ed64736f6c63430008180033",
  "linkReferences": {},
  "deployedLinkReferences": {}
}