{
  "_format": "hh-sol-artifact-1",
  "contractName": "Jackpotbox",
  "sourceName": "contracts/Jackpotbox.sol",
  "abi": [
    {
      "inputs": [
        {
          "internalType": "address",
          "name": "entropyAddress",
          "type": "address"
        }
      ],
      "stateMutability": "nonpayable",
      "type": "constructor"
    },
    {
      "anonymous": false,
      "inputs": [
        {
          "indexed": true,
          "internalType": "bytes32",
          "name": "requestId",
          "type": "bytes32"
        },
        {
          "indexed": true,
          "internalType": "uint256",
          "name": "result",
          "type": "uint256"
        }
      ],
      "name": "DiceLanded",
      "type": "event"
    },
    {
      "anonymous": false,
      "inputs": [
        {
          "indexed": true,
          "internalType": "bytes32",
          "name": "requestId",
          "type": "bytes32"
        },
        {
          "indexed": true,
          "internalType": "address",
          "name": "roller",
          "type": "address"
        }
      ],
      "name": "DiceRolled",
      "type": "event"
    },
    {
      "anonymous": false,
      "inputs": [
        {
          "indexed": true,
          "internalType": "address",
          "name": "player",
          "type": "address"
        },
        {
          "indexed": false,
          "internalType": "uint256",
          "name": "entryPrice",
          "type": "uint256"
        }
      ],
      "name": "EnteredJackpot",
      "type": "event"
    },
    {
      "anonymous": false,
      "inputs": [
        {
          "indexed": true,
          "internalType": "address",
          "name": "winner",
          "type": "address"
        },
        {
          "indexed": false,
          "internalType": "uint256",
          "name": "jackpot",
          "type": "uint256"
        }
      ],
      "name": "JackpotWon",
      "type": "event"
    },
    {
      "anonymous": false,
      "inputs": [
        {
          "indexed": true,
          "internalType": "address",
          "name": "winner",
          "type": "address"
        },
        {
          "indexed": false,
          "internalType": "uint256",
          "name": "prizePool",
          "type": "uint256"
        }
      ],
      "name": "PrizePoolWon",
      "type": "event"
    },
    {
      "inputs": [
        {
          "internalType": "uint64",
          "name": "sequence",
          "type": "uint64"
        },
        {
          "internalType": "address",
          "name": "provider",
          "type": "address"
        },
        {
          "internalType": "bytes32",
          "name": "randomNumber",
          "type": "bytes32"
        }
      ],
      "name": "_entropyCallback",
      "outputs": [],
      "stateMutability": "nonpayable",
      "type": "function"
    },
    {
      "inputs": [],
      "name": "admin",
      "outputs": [
        {
          "internalType": "address",
          "name": "",
          "type": "address"
        }
      ],
      "stateMutability": "view",
      "type": "function"
    },
    {
      "inputs": [],
      "name": "adminAddJackpot",
      "outputs": [],
      "stateMutability": "payable",
      "type": "function"
    },
    {
      "inputs": [],
      "name": "counter",
      "outputs": [
        {
          "internalType": "uint256",
          "name": "",
          "type": "uint256"
        }
      ],
      "stateMutability": "view",
      "type": "function"
    },
    {
      "inputs": [],
      "name": "enterJackpot",
      "outputs": [],
      "stateMutability": "payable",
      "type": "function"
    },
    {
      "inputs": [],
      "name": "entryPrice",
      "outputs": [
        {
          "internalType": "uint256",
          "name": "",
          "type": "uint256"
        }
      ],
      "stateMutability": "view",
      "type": "function"
    },
    {
      "inputs": [],
      "name": "fee",
      "outputs": [
        {
          "internalType": "uint256",
          "name": "",
          "type": "uint256"
        }
      ],
      "stateMutability": "view",
      "type": "function"
    },
    {
      "inputs": [
        {
          "internalType": "bytes32",
          "name": "requestId",
          "type": "bytes32"
        },
        {
          "internalType": "uint256",
          "name": "rand",
          "type": "uint256"
        }
      ],
      "name": "fulfillRandom",
      "outputs": [],
      "stateMutability": "nonpayable",
      "type": "function"
    },
    {
      "inputs": [],
      "name": "getCounter",
      "outputs": [
        {
          "internalType": "uint256",
          "name": "",
          "type": "uint256"
        }
      ],
      "stateMutability": "view",
      "type": "function"
    },
    {
      "inputs": [],
      "name": "getJackpot",
      "outputs": [
        {
          "internalType": "uint256",
          "name": "",
          "type": "uint256"
        }
      ],
      "stateMutability": "view",
      "type": "function"
    },
    {
      "inputs": [],
      "name": "jackpot",
      "outputs": [
        {
          "internalType": "uint256",
          "name": "",
          "type": "uint256"
        }
      ],
      "stateMutability": "view",
      "type": "function"
    },
    {
      "inputs": [],
      "name": "minChanceJackpot",
      "outputs": [
        {
          "internalType": "uint256",
          "name": "",
          "type": "uint256"
        }
      ],
      "stateMutability": "view",
      "type": "function"
    },
    {
      "inputs": [],
      "name": "minChancePrizepool",
      "outputs": [
        {
          "internalType": "uint256",
          "name": "",
          "type": "uint256"
        }
      ],
      "stateMutability": "view",
      "type": "function"
    },
    {
      "inputs": [],
      "name": "oracle",
      "outputs": [
        {
          "internalType": "address",
          "name": "",
          "type": "address"
        }
      ],
      "stateMutability": "view",
      "type": "function"
    },
    {
      "inputs": [],
      "name": "prizePool",
      "outputs": [
        {
          "internalType": "uint256",
          "name": "",
          "type": "uint256"
        }
      ],
      "stateMutability": "view",
      "type": "function"
    },
    {
      "inputs": [],
      "name": "prizePoolOffset",
      "outputs": [
        {
          "internalType": "uint256",
          "name": "",
          "type": "uint256"
        }
      ],
      "stateMutability": "view",
      "type": "function"
    },
    {
      "inputs": [
        {
          "internalType": "address",
          "name": "newOracle",
          "type": "address"
        }
      ],
      "name": "setOracle",
      "outputs": [],
      "stateMutability": "nonpayable",
      "type": "function"
    },
    {
      "inputs": [
        {
          "internalType": "address",
          "name": "newSpiliter",
          "type": "address"
        }
      ],
      "name": "setSpiliter",
      "outputs": [],
      "stateMutability": "nonpayable",
      "type": "function"
    },
    {
      "inputs": [],
      "name": "spiliter",
      "outputs": [
        {
          "internalType": "address",
          "name": "",
          "type": "address"
        }
      ],
      "stateMutability": "view",
      "type": "function"
    },
    {
      "inputs": [],
      "name": "userRandomNumber1",
      "outputs": [
        {
          "internalType": "bytes32",
          "name": "",
          "type": "bytes32"
        }
      ],
      "stateMutability": "view",
      "type": "function"
    }
  ],
  "bytecode": "0x6080604052600a6004556005805560006006556000600755600a6008556064600955600a80556001600b553480156200003757600080fd5b50604051620022c1380380620022c183398181016040528101906200005d9190620001d1565b33600160006101000a81548173ffffffffffffffffffffffffffffffffffffffff021916908373ffffffffffffffffffffffffffffffffffffffff16021790555033600260006101000a81548173ffffffffffffffffffffffffffffffffffffffff021916908373ffffffffffffffffffffffffffffffffffffffff16021790555033600360006101000a81548173ffffffffffffffffffffffffffffffffffffffff021916908373ffffffffffffffffffffffffffffffffffffffff160217905550806000806101000a81548173ffffffffffffffffffffffffffffffffffffffff021916908373ffffffffffffffffffffffffffffffffffffffff1602179055505062000203565b600080fd5b600073ffffffffffffffffffffffffffffffffffffffff82169050919050565b600062000199826200016c565b9050919050565b620001ab816200018c565b8114620001b757600080fd5b50565b600081519050620001cb81620001a0565b92915050565b600060208284031215620001ea57620001e962000167565b5b6000620001fa84828501620001ba565b91505092915050565b6120ae80620002136000396000f3fe60806040526004361061011f5760003560e01c8063828fc015116100a0578063ddca3f4311610064578063ddca3f4314610361578063f1c03f171461038c578063f745adfc146103b7578063f851a440146103e2578063fd51ce271461040d5761011f565b8063828fc015146102ab5780638ada066e146102d65780639329066c14610301578063bce08b331461032c578063da931fe0146103575761011f565b806369d18214116100e757806369d18214146101d65780636b31ee0114610201578063719ce73e1461022c5780637adbf973146102575780637dc0d1d0146102805761011f565b80630e86e30b14610124578063179e89cd1461014d57806352a5f1f81461015757806359d596f01461018057806361bc221a146101ab575b600080fd5b34801561013057600080fd5b5061014b600480360381019061014691906116b7565b610436565b005b61015561095b565b005b34801561016357600080fd5b5061017e60048036038101906101799190611795565b610a06565b005b34801561018c57600080fd5b50610195610b00565b6040516101a291906117f7565b60405180910390f35b3480156101b757600080fd5b506101c0610b06565b6040516101cd9190611821565b60405180910390f35b3480156101e257600080fd5b506101eb610b0c565b6040516101f8919061184b565b60405180910390f35b34801561020d57600080fd5b50610216610b32565b6040516102239190611821565b60405180910390f35b34801561023857600080fd5b50610241610b38565b60405161024e9190611821565b60405180910390f35b34801561026357600080fd5b5061027e60048036038101906102799190611866565b610b3e565b005b34801561028c57600080fd5b50610295610c12565b6040516102a2919061184b565b60405180910390f35b3480156102b757600080fd5b506102c0610c38565b6040516102cd9190611821565b60405180910390f35b3480156102e257600080fd5b506102eb610c3e565b6040516102f89190611821565b60405180910390f35b34801561030d57600080fd5b50610316610c48565b6040516103239190611821565b60405180910390f35b34801561033857600080fd5b50610341610c52565b60405161034e9190611821565b60405180910390f35b61035f610c58565b005b34801561036d57600080fd5b506103766110cf565b6040516103839190611821565b60405180910390f35b34801561039857600080fd5b506103a16110d5565b6040516103ae9190611821565b60405180910390f35b3480156103c357600080fd5b506103cc6110db565b6040516103d99190611821565b60405180910390f35b3480156103ee57600080fd5b506103f76110e1565b604051610404919061184b565b60405180910390f35b34801561041957600080fd5b50610434600480360381019061042f9190611866565b611107565b005b600360009054906101000a900473ffffffffffffffffffffffffffffffffffffffff1673ffffffffffffffffffffffffffffffffffffffff163373ffffffffffffffffffffffffffffffffffffffff16146104c6576040517f08c379a00000000000000000000000000000000000000000000000000000000081526004016104bd90611916565b60405180910390fd5b80827f909dd726737b7ffa4ae9d137e9edebe8a74a9c2910a4b60e8112f93ab217083760405160405180910390a3600060055460646105059190611994565b60085461051291906119c5565b905060008082846105239190611a07565b1490506000806007546009546105399190611a38565b856105449190611a07565b149050811561068b57600454600660008282546105619190611a6c565b92505081905550600d600086815260200190815260200160002060009054906101000a900473ffffffffffffffffffffffffffffffffffffffff1673ffffffffffffffffffffffffffffffffffffffff166108fc6004549081150290604051600060405180830381858888f193505050501580156105e3573d6000803e3d6000fd5b50600b546004546105f49190611994565b6007546106019190611a6c565b600781905550600d600086815260200190815260200160002060009054906101000a900473ffffffffffffffffffffffffffffffffffffffff1673ffffffffffffffffffffffffffffffffffffffff167f1f0cf6f7d6ed23e7dac9abd8b776b05f34ffeca71554f8f1df67111a66ea02f36004546040516106829190611821565b60405180910390a25b801561084157600d600086815260200190815260200160002060009054906101000a900473ffffffffffffffffffffffffffffffffffffffff1673ffffffffffffffffffffffffffffffffffffffff166108fc600a60046006546106ef91906119c5565b6106f99190611994565b9081150290604051600060405180830381858888f19350505050158015610724573d6000803e3d6000fd5b50600260009054906101000a900473ffffffffffffffffffffffffffffffffffffffff1673ffffffffffffffffffffffffffffffffffffffff166108fc600a6006546107709190611994565b9081150290604051600060405180830381858888f1935050505015801561079b573d6000803e3d6000fd5b50600a60046007546107ad91906119c5565b6107b79190611994565b600781905550600d600086815260200190815260200160002060009054906101000a900473ffffffffffffffffffffffffffffffffffffffff1673ffffffffffffffffffffffffffffffffffffffff167fbf737c87eff4ef74213cb228c9e25ca0c4519947f5fcc4a41b221ba93d76a4256006546040516108389190611821565b60405180910390a25b6007600081548092919061085490611aa0565b91905055506000600e6000600d600089815260200190815260200160002060009054906101000a900473ffffffffffffffffffffffffffffffffffffffff1673ffffffffffffffffffffffffffffffffffffffff1673ffffffffffffffffffffffffffffffffffffffff16815260200190815260200160002081905550600d600086815260200190815260200160002060009054906101000a900473ffffffffffffffffffffffffffffffffffffffff1673ffffffffffffffffffffffffffffffffffffffff167fc6dc69689d7726af8e61be021c11d7d0ea30e6b1f73b78c8cd7c8da7d6456210600b5460405161094c9190611821565b60405180910390a25050505050565b600160009054906101000a900473ffffffffffffffffffffffffffffffffffffffff1673ffffffffffffffffffffffffffffffffffffffff163373ffffffffffffffffffffffffffffffffffffffff16146109eb576040517f08c379a00000000000000000000000000000000000000000000000000000000081526004016109e290611b5a565b60405180910390fd5b34600660008282546109fd9190611a38565b92505081905550565b6000610a106111db565b9050600073ffffffffffffffffffffffffffffffffffffffff168173ffffffffffffffffffffffffffffffffffffffff1603610a81576040517f08c379a0000000000000000000000000000000000000000000000000000000008152600401610a7890611bc6565b60405180910390fd5b8073ffffffffffffffffffffffffffffffffffffffff163373ffffffffffffffffffffffffffffffffffffffff1614610aef576040517f08c379a0000000000000000000000000000000000000000000000000000000008152600401610ae690611c58565b60405180910390fd5b610afa848484611204565b50505050565b600c5481565b60075481565b600260009054906101000a900473ffffffffffffffffffffffffffffffffffffffff1681565b60065481565b60045481565b600160009054906101000a900473ffffffffffffffffffffffffffffffffffffffff1673ffffffffffffffffffffffffffffffffffffffff163373ffffffffffffffffffffffffffffffffffffffff1614610bce576040517f08c379a0000000000000000000000000000000000000000000000000000000008152600401610bc590611b5a565b60405180910390fd5b80600360006101000a81548173ffffffffffffffffffffffffffffffffffffffff021916908373ffffffffffffffffffffffffffffffffffffffff16021790555050565b600360009054906101000a900473ffffffffffffffffffffffffffffffffffffffff1681565b60085481565b6000600754905090565b6000600654905090565b60095481565b600b543414610c9c576040517f08c379a0000000000000000000000000000000000000000000000000000000008152600401610c9390611cc4565b60405180910390fd5b6000600e60003373ffffffffffffffffffffffffffffffffffffffff1673ffffffffffffffffffffffffffffffffffffffff1681526020019081526020016000205414610d1e576040517f08c379a0000000000000000000000000000000000000000000000000000000008152600401610d1590611d30565b60405180910390fd5b600b5460066000828254610d329190611a38565b925050819055506000433330604051602001610d5093929190611db9565b60405160208183030381529060405280519060200120905060008060009054906101000a900473ffffffffffffffffffffffffffffffffffffffff1673ffffffffffffffffffffffffffffffffffffffff166382ee990c6040518163ffffffff1660e01b8152600401602060405180830381865afa158015610dd6573d6000803e3d6000fd5b505050506040513d601f19601f82011682018060405250810190610dfa9190611e0b565b905060008060009054906101000a900473ffffffffffffffffffffffffffffffffffffffff1673ffffffffffffffffffffffffffffffffffffffff1663b88c9148836040518263ffffffff1660e01b8152600401610e58919061184b565b602060405180830381865afa158015610e75573d6000803e3d6000fd5b505050506040513d601f19601f82011682018060405250810190610e999190611e80565b6fffffffffffffffffffffffffffffffff16905080471015610ef0576040517f08c379a0000000000000000000000000000000000000000000000000000000008152600401610ee790611f1f565b60405180910390fd5b60008060009054906101000a900473ffffffffffffffffffffffffffffffffffffffff1673ffffffffffffffffffffffffffffffffffffffff166319cb825f8385876040518463ffffffff1660e01b8152600401610f4f929190611f3f565b60206040518083038185885af1158015610f6d573d6000803e3d6000fd5b50505050506040513d601f19601f82011682018060405250810190610f929190611f7d565b905060008133604051602001610fa9929190611fe0565b60405160208183030381529060405280519060200120905080600f60008467ffffffffffffffff1667ffffffffffffffff1681526020019081526020016000208190555033600d600083815260200190815260200160002060006101000a81548173ffffffffffffffffffffffffffffffffffffffff021916908373ffffffffffffffffffffffffffffffffffffffff160217905550602a600e60003373ffffffffffffffffffffffffffffffffffffffff1673ffffffffffffffffffffffffffffffffffffffff168152602001908152602001600020819055503373ffffffffffffffffffffffffffffffffffffffff16817f923de4fc4aece24a78a9e4ca3009c571a742f81ac2c004a229224b0fd1883bdd60405160405180910390a35050505050565b600a5481565b60055481565b600b5481565b600160009054906101000a900473ffffffffffffffffffffffffffffffffffffffff1681565b600160009054906101000a900473ffffffffffffffffffffffffffffffffffffffff1673ffffffffffffffffffffffffffffffffffffffff163373ffffffffffffffffffffffffffffffffffffffff1614611197576040517f08c379a000000000000000000000000000000000000000000000000000000000815260040161118e90611b5a565b60405180910390fd5b80600260006101000a81548173ffffffffffffffffffffffffffffffffffffffff021916908373ffffffffffffffffffffffffffffffffffffffff16021790555050565b60008060009054906101000a900473ffffffffffffffffffffffffffffffffffffffff16905090565b6000600f60008567ffffffffffffffff1667ffffffffffffffff1681526020019081526020016000205490506000600d600083815260200190815260200160002060009054906101000a900473ffffffffffffffffffffffffffffffffffffffff169050600073ffffffffffffffffffffffffffffffffffffffff168173ffffffffffffffffffffffffffffffffffffffff16036112d7576040517f08c379a00000000000000000000000000000000000000000000000000000000081526004016112ce90612058565b60405180910390fd5b60008360001c905080837f909dd726737b7ffa4ae9d137e9edebe8a74a9c2910a4b60e8112f93ab217083760405160405180910390a36000600554606461131e9190611994565b60085461132b91906119c5565b9050600080828461133c9190611a07565b1490506000806007546009546113529190611a38565b8561135d9190611a07565b149050811561143e576004546006600082825461137a9190611a6c565b925050819055508473ffffffffffffffffffffffffffffffffffffffff166108fc6004549081150290604051600060405180830381858888f193505050501580156113c9573d6000803e3d6000fd5b50600b546004546113da9190611994565b6007546113e79190611a6c565b6007819055508473ffffffffffffffffffffffffffffffffffffffff167f1f0cf6f7d6ed23e7dac9abd8b776b05f34ffeca71554f8f1df67111a66ea02f36004546040516114359190611821565b60405180910390a25b801561158e578473ffffffffffffffffffffffffffffffffffffffff166108fc600a600460065461146f91906119c5565b6114799190611994565b9081150290604051600060405180830381858888f193505050501580156114a4573d6000803e3d6000fd5b50600260009054906101000a900473ffffffffffffffffffffffffffffffffffffffff1673ffffffffffffffffffffffffffffffffffffffff166108fc600a6006546114f09190611994565b9081150290604051600060405180830381858888f1935050505015801561151b573d6000803e3d6000fd5b50600a600460075461152d91906119c5565b6115379190611994565b6007819055508473ffffffffffffffffffffffffffffffffffffffff167fbf737c87eff4ef74213cb228c9e25ca0c4519947f5fcc4a41b221ba93d76a4256006546040516115859190611821565b60405180910390a25b600760008154809291906115a190611aa0565b91905055506000600e60008773ffffffffffffffffffffffffffffffffffffffff1673ffffffffffffffffffffffffffffffffffffffff168152602001908152602001600020819055508473ffffffffffffffffffffffffffffffffffffffff167fc6dc69689d7726af8e61be021c11d7d0ea30e6b1f73b78c8cd7c8da7d6456210600b546040516116339190611821565b60405180910390a2505050505050505050565b600080fd5b6000819050919050565b61165e8161164b565b811461166957600080fd5b50565b60008135905061167b81611655565b92915050565b6000819050919050565b61169481611681565b811461169f57600080fd5b50565b6000813590506116b18161168b565b92915050565b600080604083850312156116ce576116cd611646565b5b60006116dc8582860161166c565b92505060206116ed858286016116a2565b9150509250929050565b600067ffffffffffffffff82169050919050565b611714816116f7565b811461171f57600080fd5b50565b6000813590506117318161170b565b92915050565b600073ffffffffffffffffffffffffffffffffffffffff82169050919050565b600061176282611737565b9050919050565b61177281611757565b811461177d57600080fd5b50565b60008135905061178f81611769565b92915050565b6000806000606084860312156117ae576117ad611646565b5b60006117bc86828701611722565b93505060206117cd86828701611780565b92505060406117de8682870161166c565b9150509250925092565b6117f18161164b565b82525050565b600060208201905061180c60008301846117e8565b92915050565b61181b81611681565b82525050565b60006020820190506118366000830184611812565b92915050565b61184581611757565b82525050565b6000602082019050611860600083018461183c565b92915050565b60006020828403121561187c5761187b611646565b5b600061188a84828501611780565b91505092915050565b600082825260208201905092915050565b7f4f6e6c79206f7261636c652063616e2063616c6c20746869732066756e63746960008201527f6f6e000000000000000000000000000000000000000000000000000000000000602082015250565b6000611900602283611893565b915061190b826118a4565b604082019050919050565b6000602082019050818103600083015261192f816118f3565b9050919050565b7f4e487b7100000000000000000000000000000000000000000000000000000000600052601260045260246000fd5b7f4e487b7100000000000000000000000000000000000000000000000000000000600052601160045260246000fd5b600061199f82611681565b91506119aa83611681565b9250826119ba576119b9611936565b5b828204905092915050565b60006119d082611681565b91506119db83611681565b92508282026119e981611681565b91508282048414831517611a00576119ff611965565b5b5092915050565b6000611a1282611681565b9150611a1d83611681565b925082611a2d57611a2c611936565b5b828206905092915050565b6000611a4382611681565b9150611a4e83611681565b9250828201905080821115611a6657611a65611965565b5b92915050565b6000611a7782611681565b9150611a8283611681565b9250828203905081811115611a9a57611a99611965565b5b92915050565b6000611aab82611681565b91507fffffffffffffffffffffffffffffffffffffffffffffffffffffffffffffffff8203611add57611adc611965565b5b600182019050919050565b7f4f6e6c792061646d696e2063616e2063616c6c20746869732066756e6374696f60008201527f6e00000000000000000000000000000000000000000000000000000000000000602082015250565b6000611b44602183611893565b9150611b4f82611ae8565b604082019050919050565b60006020820190508181036000830152611b7381611b37565b9050919050565b7f456e74726f70792061646472657373206e6f7420736574000000000000000000600082015250565b6000611bb0601783611893565b9150611bbb82611b7a565b602082019050919050565b60006020820190508181036000830152611bdf81611ba3565b9050919050565b7f4f6e6c7920456e74726f70792063616e2063616c6c20746869732066756e637460008201527f696f6e0000000000000000000000000000000000000000000000000000000000602082015250565b6000611c42602383611893565b9150611c4d82611be6565b604082019050919050565b60006020820190508181036000830152611c7181611c35565b9050919050565b7f496e76616c696420656e74727920707269636500000000000000000000000000600082015250565b6000611cae601383611893565b9150611cb982611c78565b602082019050919050565b60006020820190508181036000830152611cdd81611ca1565b9050919050565b7f416c726561647920726f6c6c6564000000000000000000000000000000000000600082015250565b6000611d1a600e83611893565b9150611d2582611ce4565b602082019050919050565b60006020820190508181036000830152611d4981611d0d565b9050919050565b6000819050919050565b611d6b611d6682611681565b611d50565b82525050565b60008160601b9050919050565b6000611d8982611d71565b9050919050565b6000611d9b82611d7e565b9050919050565b611db3611dae82611757565b611d90565b82525050565b6000611dc58286611d5a565b602082019150611dd58285611da2565b601482019150611de58284611da2565b601482019150819050949350505050565b600081519050611e0581611769565b92915050565b600060208284031215611e2157611e20611646565b5b6000611e2f84828501611df6565b91505092915050565b60006fffffffffffffffffffffffffffffffff82169050919050565b611e5d81611e38565b8114611e6857600080fd5b50565b600081519050611e7a81611e54565b92915050565b600060208284031215611e9657611e95611646565b5b6000611ea484828501611e6b565b91505092915050565b7f496e73756666696369656e742066756e647320666f7220656e74726f7079206660008201527f6565000000000000000000000000000000000000000000000000000000000000602082015250565b6000611f09602283611893565b9150611f1482611ead565b604082019050919050565b60006020820190508181036000830152611f3881611efc565b9050919050565b6000604082019050611f54600083018561183c565b611f6160208301846117e8565b9392505050565b600081519050611f778161170b565b92915050565b600060208284031215611f9357611f92611646565b5b6000611fa184828501611f68565b91505092915050565b60008160c01b9050919050565b6000611fc282611faa565b9050919050565b611fda611fd5826116f7565b611fb7565b82525050565b6000611fec8285611fc9565b600882019150611ffc8284611da2565b6014820191508190509392505050565b7f496e76616c69642063616c6c6261636b00000000000000000000000000000000600082015250565b6000612042601083611893565b915061204d8261200c565b602082019050919050565b6000602082019050818103600083015261207181612035565b905091905056fea2646970667358221220f93ed837b7382c0f3cf5627f222196a72093605223c115c5bf5d8bc2db29472264736f6c63430008180033",
  "linkReferences": {},
  "deployedLinkReferences": {}
}